:020000040800F2
:10000000000002208D0A0008DD0A0008DD0A000851
:10001000DD0A0008DD0A0008DD0A00080000000013
:10002000000000000000000000000000DD0A0008E1
:10003000DD0A000800000000DD0A0008BD0200081B
:10004000DD0A0008DD0A0008DD0A0008DD0A0008F4
:10005000DD0A0008DD0A0008DD0A0008DD0A0008E4
:10006000DD0A0008DD0A0008DD0A0008DD0A0008D4
:10007000DD0A0008DD0A0008DD0A0008DD0A0008C4
:10008000DD0A0008DD0A0008DD0A0008DD0A0008B4
:10009000DD0A0008DD0A0008DD0A0008DD0A0008A4
:1000A000DD0A0008DD0A0008DD0A0008DD0A000894
:1000B000DD0A0008DD0A0008DD0A0008DD0A000884
:1000C000DD0A0008DD0A0008DD0A0008DD0A000874
:1000D000DD0A0008DD0A0008DD0A0008DD0A000864
:1000E000DD0A0008DD0A0008DD0A0008DD0A000854
:1000F000DD0A0008DD0A0008DD0A0008DD0A000844
:10010000DD0A0008DD0A0008DD0A0008DD0A000833
:10011000DD0A0008DD0A0008DD0A0008DD0A000823
:10012000DD0A0008DD0A0008DD0A0008DD0A000813
:10013000DD0A0008DD0A0008DD0A0008DD0A000803
:10014000DD0A0008DD0A0008DD0A0008DD0A0008F3
:10015000DD0A0008DD0A0008DD0A0008DD0A0008E3
:10016000DD0A0008DD0A0008DD0A0008DD0A0008D3
:10017000DD0A0008DD0A0008DD0A000800000000B2
:08018000DD0A0008DD0A000899
:10018800034613F8012B002AFBD1181A01387047CF
:1001980053B94AB9002908BF00281CBF4FF0FF31E6
:1001A8004FF0FF3000F00CB8ADF1080C6DE904CE4B
:1001B80000F0B6FCDDF804E0DDE9022304B0704786
:1001C800704700BF0348044B834202D0034B03B17E
:1001D80018477047100000201000002000000000A1
:1001E8000548064B1B1AD90F01EBA301491002D091
:1001F800034B03B11847704710000020100000207F
:100208000000000010B5064C237843B9FFF7DAFF69
:10021800044B13B10448AFF300800123237010BDD1
:100228001000002000000000200E000808B5054B53
:100238001BB105490548AFF30080BDE80840FFF74A
:10024800CFBF00BF0000000014000020200E0008EF
:10025800FEE7000008B50948094B03604FF4E13395
:10026800436000238360C360036183610C2343619F
:1002780000F079F900B908BDFFF7EAFF2C0000206B
:100288000044004010B500F0C7FBFFF7E3FF074B41
:100298001868FFF775FF84B24FF0FF332246034911
:1002A8000968034800F08FF9F6E700BF0000002056
:1002B8002C00002008B500F0C9FB00F082FB08BD47
:1002C80008B5032000F042FB0B4A536A43F4E023CD
:1002D8005362002211466FF00B0000F049FB002228
:1002E80011466FF00A0000F043FB002211466FF040
:1002F800090000F03DFB08BD00ED00E070B588B0D6
:1003080000240194194B1A6C42F400321A641A6CD6
:1003180002F400320192019A02941A6B42F001022F
:100328001A631B6B03F001030293029B04230393DC
:10033800022304930123059306940723079303AE2E
:100348000B4D3146284600F0C9F90823039331467E
:10035800284600F0C3F9262000F01AFB22460F2198
:10036800262000F005FB08B070BD00BF0038024031
:1003780000000240026802F10C0353E8003F23F436
:1003880090730C3242E800310029F3D1026802F17F
:10039800140353E8003F23F00103143242E800310C
:1003A8000029F3D1036B012B05D0202380F84230BC
:1003B800002303637047026802F10C0353E8003F0F
:1003C80023F010030C3242E800310029F3D1ECE7A6
:1003D80010B504460268136923F44053C1680B43FF
:1003E8001361836802691A4343691A43C3691A434C
:1003F8000168CB6823F4164323F00C031343CB6046
:100408000268536923F4407381690B43536103689D
:10041800314A934206D002F58062934202D000F03E
:100428003DF901E000F04AF9E369B3F5004F29D03E
:100438000021031849411B1841F10001C90041EA94
:100448005371DB00181863684FEA83024FEA93730D
:1004580041F10001FFF79CFE204AA2FB0031490947
:10046800642303FB11031B013233A2FB03235B0943
:1004780003F0F00202EB011203F00F0321681344AA
:100488008B6010BD0023021843EB0301121841F1E1
:100498000001C90041EA5271D200101841F100016F
:1004A800626892185B41FFF773FE0C4AA2FB0031A9
:1004B8004909642303FB1103DB003233A2FB032346
:1004C8005B095A0002F4F87202EB011203F0070309
:1004D800216813448B60D4E7001001401F85EB515D
:1004E8002DE9F04383B005460E4617469946DDF8D8
:1004F80028802B681C6836EA04040CBF01240024F9
:10050800BC4228D1B8F1FF3FF3D000F0ABFAA0EB22
:100518000900404523D8B8F1000F22D02B68DA68CB
:1005280012F0040FE5D0802EE3D0402EE1D01A68F7
:1005380012F0080FDDD0002401941A6801925B685C
:100548000193019B2846FFF715FF08236B6485F884
:100558004040012000E0002003B0BDE8F083032004
:10056800FAE70320F8E760B310B5044690F8413085
:1005780013B3242384F841302268D36823F400534A
:10058800D3602046FFF724FF2268136923F49043C1
:1005980013612268536923F02A0353612268D368E0
:1005A80043F40053D36000206064202384F8413072
:1005B80084F84230606310BD80F84030FFF79EFE3B
:1005C800D7E7012070472DE9F04182B01E4690F828
:1005D8004130202B56D104460D469046002955D06F
:1005E8000AB901204FE000234364212380F84130F9
:1005F80000F038FA0746A4F82480A4F82680A368F7
:10060800B3F5805F02D04FF0000814E023692BB3E4
:100618004FF000080FE0202384F84130032032E037
:1006280038F8023B2268C3F308035360E28C92B2A5
:10063800013A92B2E284E38C9BB293B100963B46B6
:10064800002280212046FFF74BFF0028E3D1002D30
:10065800E6D015F8012B23685A60E7E7A84600257D
:10066800E9E700963B46002240212046FFF738FF85
:1006780018B9202384F8413005E0202384F841305C
:10068800032000E0022002B0BDE8F0810120FAE773
:10069800014B1868704700BF0C00002008B5FFF731
:1006A800F7FF044B9B68C3F38223034AD35CD8400B
:1006B80008BD00BF00380240580E000808B5FFF713
:1006C800E7FF044B9B68C3F34233034AD35CD8402B
:1006D80008BD00BF00380240580E000800230F2B49
:1006E80000F2E98070B582B065E085684FEA430E94
:1006F800032404FA0EF425EA0405CC6804FA0EF47F
:100708002C438460446824EA02044A68C2F3001255
:100718009A40224342605CE0DC08083450F8242008
:1007280003F00705AD004FF00F0E0EFA05FE22EAA2
:100738000E0E0A69AA4042EA0E0240F824205CE044
:10074800072200E0002202FA0EF22A4302345A4D30
:1007580045F82420594A94686FEA0C0224EA0C05EB
:100768004E6816F4801F01D04CEA0405534CA5606E
:10077800E46802EA04054E6816F4001F01D04CEA4A
:1007880004054E4CE560646802EA04054E6816F4F8
:10079800003F01D04CEA0405484C656024682240BB
:1007A8004D6815F4803F01D04CEA0402434C2260A6
:1007B80001330F2B7DD801229A400C6804EA020C01
:1007C80032EA0404F4D14C6804F00304013C012C1F
:1007D8008BD94A6802F00302032A09D0C4685D0075
:1007E8000322AA4024EA02048A68AA402243C2607B
:1007F8004A6802F00302022A8ED004684FEA430EC8
:10080800032202FA0EF224EA02044A6802F0030202
:1008180002FA0EF2224302604A6812F4403FC7D03F
:1008280000220192264A546C44F480445464526C69
:1008380002F480420192019A9C08A51C1E4A52F8B3
:10084800255003F0030E4FEA8E0E0F2202FA0EF225
:1008580025EA02051B4A90423FF474AF02F5806214
:1008680090421AD002F58062904218D002F5806258
:10087800904216D002F58062904214D002F5806250
:10088800904212D002F58062904210D002F5806248
:1008980090423FF455AF082255E7012253E7022260
:1008A80051E703224FE704224DE705224BE70622D2
:1008B80049E702B070BD704700380140003C014074
:1008C8000038024000000240002807DB00F01F0249
:1008D800400901239340024A42F82030704700BF84
:1008E80000E100E0002808DB0901C9B200F160401E
:1008F80000F5614080F80013704700F00F0009010F
:10090800C9B2014B1954704714ED00E000B500F06E
:100918000700C0F1070CBCF1040F28BF4FF0040C0E
:10092800031D062B0FD9C31E4FF0FF3E0EFA0CF025
:1009380021EA000199400EFA03FE22EA0E0241EA7A
:1009480002005DF804FB0023EEE70000074AD368C5
:1009580023F4E0631B041B0C000200F4E060034373
:1009680043F0BF6343F40033D360704700ED00E009
:1009780010B50446054BD868C0F30220FFF7C6FF40
:1009880001462046FFF7AEFF10BD00BF00ED00E0B6
:1009980008B5FFF799FF08BD0138B0F1807F0BD289
:1009A8004FF0E0235861054AF02182F82310002017
:1009B800986107221A6170470120704700ED00E036
:1009C800704708B5FFF7FCFF08BD000010B50446E6
:1009D8000E4B1A784FF47A73B3FBF2F30C4A106893
:1009E800B0FBF3F0FFF7D8FF68B90F2C01D901204D
:1009F8000AE0002221464FF0FF30FFF7B9FF054B10
:100A08001C60002000E0012010BD00BF0400002091
:100A18000C0000200800002008B50B4B1A6842F4AF
:100A280000721A601A6842F480621A601A6842F406
:100A380080721A600320FFF789FF0F20FFF7C6FFB7
:100A4800FFF73EFC002008BD003C0240034A116845
:100A5800034B1B780B441360704700BF74000020E1
:100A680004000020014B1868704700BF7400002084
:100A7800034AD2F8883043F47003C2F888307047CC
:100A880000ED00E0DFF834D0FFF7F2FF0C480D4925
:100A98000D4A002302E0D458C4500433C4188C42D1
:100AA800F9D30A4A0A4C002301E013600432A24237
:100AB800FBD300F011F8FFF7E5FB704700000220B8
:100AC8000000002010000020700E00081000002018
:100AD80078000020FEE7000070B50D4B0D4D5B1B44
:100AE8009C100026A64209D100F096F90A4D0B4B3E
:100AF8005B1B9C100026A64205D170BD55F8043B2F
:100B080098470136EEE755F8043B98470136F2E777
:100B1800680E0008680E0008680E00086C0E0008D1
:100B28002DE9F047089D0F4604468C46002B48D116
:100B38008A42164661D9B2FA82F34BB1C3F1200258
:100B480001FA03FC20FA02F29E4042EA0C0C9C4097
:100B58004FEA164EB7B2BCFBFEF1220C0EFB11CCCD
:100B680042EA0C4201FB07F0904209D9B21801F1A0
:100B7800FF3C80F0EE80904240F2EB800239324434
:100B8800121AA4B2B2FBFEF00EFB102244EA024491
:100B980000FB07F7A74209D9341900F1FF3280F0AA
:100BA800DA80A74240F2D7803444023840EA014054
:100BB800E41B00211DB1DC400023C5E90043BDE86A
:100BC800F0878B4206D90DB1C5E90001002108461E
:100BD800BDE8F087B3FA83F1002948D1BB4202D3BC
:100BE800824200F20781841A67EB030201209446CF
:100BF800002DE4D0C5E9004CE1E7002A00F092801E
:100C0800B2FA82F3002B40F0A8808A1A4FEA164EF7
:100C18001FFA86FC0121200CB2FBFEF70EFB1722FF
:100C280040EA02420CFB07F0904207D9B21807F1DC
:100C3800FF3802D2904200F2E2804746121AA4B26C
:100C4800B2FBFEF00EFB102244EA02440CFB00FC4F
:100C5800A44507D9341900F1FF3202D2A44500F2A5
:100C6800CB801046A4EB0C0440EA0740A2E7C1F190
:100C780020068B4022FA06FC4CEA030C07FA01F422
:100C880020FA06F3F7404FEA1C49234300FA01F81B
:100C98001FFA8CFEB7FBF9F01C0C09FB107744EA2D
:100CA800074400FB0EF7A74202FA01F20AD91CEB2F
:100CB800040400F1FF3A80F09B80A74240F298803C
:100CC80002386444E41B9FB2B4FBF9F309FB1344F4
:100CD80047EA044403FB0EFEA64509D91CEB0404AD
:100CE80003F1FF3780F08280A6457FD9023B644438
:100CF80043EA0040A4EB0E04A0FB02E7BC427346A3
:100D0800B94663D360D05DB1B8EB030264EB090464
:100D180004FA06F622FA01F31E43CC40C5E9006442
:100D280000214CE76208480842EAC1710B0C43EA0B
:100D380000438AB242EA0342B3FBF6F1E407B44641
:100D48003746B6461F23B0FBF6F0D21B41EA0041F6
:100D580061E7614614E7104628E7C3F1200120FA4D
:100D680001F29E4027FA01F19F403A434FEA164E9E
:100D78001FFA86FCB1FBFEF70EFB1710110C41EAB7
:100D8800004107FB0CF8884504FA03F43AD97118B6
:100D980007F1FF3001D288451FD8A1EB0801B1FB4C
:100DA800FEF808FB0CF70EFB181192B242EA01425A
:100DB800BA422FD2B21808F1FF31C6D2BA42C4D211
:100DC800A8F102013244C0E7F0459CD2BEEB020311
:100DD80067EB0C070138B94695E7A6EB08084144CC
:100DE800B81EB1FBFEF808FB0CF7DCE73B467FE7D3
:100DF800504667E70846FBE63444023832E7023FCC
:100E080032441BE7A1EB08013846B1FBFEF808FBAA
:100E18000CF7C8E7414698E7F8B500BFF8BC08BC2E
:100E28009E467047F8B500BFF8BC08BC9E467047A0
:100E3800546865206170706C69636174696F6E20B5
:100E480069732072756E6E696E670D0A0000000086
:080E5800000000000102030488
:080E600028F3FF7F01000000F0
:040E68003502000847
:040E6C000D0200086B
:100E7000380E000801000000100000000024F400FB
:0400000508000A8D58
:00000001FF
